{
  "contractName": "DIDRegistry",
  "abi": [
    {
      "anonymous": false,
      "inputs": [
        {
          "indexed": true,
          "internalType": "address",
          "name": "user",
          "type": "address"
        },
        {
          "indexed": false,
          "internalType": "string",
          "name": "name",
          "type": "string"
        },
        {
          "indexed": false,
          "internalType": "string",
          "name": "documentHash",
          "type": "string"
        }
      ],
      "name": "DIDCreated",
      "type": "event"
    },
    {
      "anonymous": false,
      "inputs": [
        {
          "indexed": true,
          "internalType": "address",
          "name": "owner",
          "type": "address"
        },
        {
          "indexed": true,
          "internalType": "address",
          "name": "recipient",
          "type": "address"
        }
      ],
      "name": "DataAccessRevoked",
      "type": "event"
    },
    {
      "anonymous": false,
      "inputs": [
        {
          "indexed": true,
          "internalType": "address",
          "name": "owner",
          "type": "address"
        },
        {
          "indexed": true,
          "internalType": "address",
          "name": "recipient",
          "type": "address"
        }
      ],
      "name": "DataShared",
      "type": "event"
    },
    {
      "inputs": [
        {
          "internalType": "address",
          "name": "",
          "type": "address"
        },
        {
          "internalType": "address",
          "name": "",
          "type": "address"
        }
      ],
      "name": "dataAccessPermissions",
      "outputs": [
        {
          "internalType": "bool",
          "name": "",
          "type": "bool"
        }
      ],
      "stateMutability": "view",
      "type": "function"
    },
    {
      "inputs": [
        {
          "internalType": "address",
          "name": "",
          "type": "address"
        }
      ],
      "name": "dids",
      "outputs": [
        {
          "internalType": "string",
          "name": "name",
          "type": "string"
        },
        {
          "internalType": "string",
          "name": "documentHash",
          "type": "string"
        },
        {
          "internalType": "bool",
          "name": "isRegistered",
          "type": "bool"
        }
      ],
      "stateMutability": "view",
      "type": "function"
    },
    {
      "inputs": [
        {
          "internalType": "string",
          "name": "_name",
          "type": "string"
        },
        {
          "internalType": "string",
          "name": "_documentHash",
          "type": "string"
        }
      ],
      "name": "registerDID",
      "outputs": [],
      "stateMutability": "nonpayable",
      "type": "function"
    },
    {
      "inputs": [
        {
          "internalType": "address",
          "name": "_recipient",
          "type": "address"
        }
      ],
      "name": "shareData",
      "outputs": [],
      "stateMutability": "nonpayable",
      "type": "function"
    },
    {
      "inputs": [
        {
          "internalType": "address",
          "name": "_recipient",
          "type": "address"
        }
      ],
      "name": "revokeDataAccess",
      "outputs": [],
      "stateMutability": "nonpayable",
      "type": "function"
    },
    {
      "inputs": [
        {
          "internalType": "address",
          "name": "_owner",
          "type": "address"
        },
        {
          "internalType": "address",
          "name": "_recipient",
          "type": "address"
        }
      ],
      "name": "hasDataAccess",
      "outputs": [
        {
          "internalType": "bool",
          "name": "",
          "type": "bool"
        }
      ],
      "stateMutability": "view",
      "type": "function"
    }
  ],
  "bytecode": "0x608060405234801561001057600080fd5b5061089a806100206000396000f3fe608060405234801561001057600080fd5b50600436106100625760003560e01c80633593f81b146100675780633fbef88014610092578063639fe57f146100a75780637e5c39e9146100c7578063d3701a7b146100da578063e6b46048146100ed575b600080fd5b61007a6100753660046105fd565b610100565b60405161008993929190610735565b60405180910390f35b6100a56100a03660046105fd565b610235565b005b6100ba6100b536600461061e565b610309565b60405161008991906106fc565b6100a56100d5366004610650565b610337565b6100a56100e83660046105fd565b61041a565b6100ba6100fb36600461061e565b6104a7565b60006020819052908152604090208054819061011b90610813565b80601f016020809104026020016040519081016040528092919081815260200182805461014790610813565b80156101945780601f1061016957610100808354040283529160200191610194565b820191906000526020600020905b81548152906001019060200180831161017757829003601f168201915b5050505050908060010180546101a990610813565b80601f01602080910402602001604051908101604052809291908181526020018280546101d590610813565b80156102225780601f106101f757610100808354040283529160200191610222565b820191906000526020600020905b81548152906001019060200180831161020557829003601f168201915b5050506002909301549192505060ff1683565b3360009081526020819052604090206002015460ff166102705760405162461bcd60e51b8152600401610267906107e6565b60405180910390fd5b3360009081526001602090815260408083206001600160a01b038516845290915290205460ff166102b35760405162461bcd60e51b8152600401610267906107a4565b3360008181526001602090815260408083206001600160a01b0386168085529252808320805460ff19169055519092917f762331c97a9705db10fd72dedc4c825c4c2a1f2b185a47638369e3db4a15f81991a350565b6001600160a01b03918216600090815260016020908152604080832093909416825291909152205460ff1690565b3360009081526020819052604090206002015460ff161561036a5760405162461bcd60e51b81526004016102679061076d565b6040805160608101825283815260208082018490526001828401523360009081528082529290922081518051929391926103a792849201906104c7565b5060208281015180516103c092600185019201906104c7565b50604091820151600291909101805460ff19169115159190911790555133907fcc7fbf925a06e2212336c2ba2cfec5a7592908904ce57452e75b81d578b09d9a9061040e9085908590610707565b60405180910390a25050565b3360009081526020819052604090206002015460ff1661044c5760405162461bcd60e51b8152600401610267906107e6565b3360008181526001602081815260408084206001600160a01b0387168086529252808420805460ff191690931790925590519092917fa95f0d184fd62f7b8296302d3f94c1a2fdfbd1c444e18b1313342b401d36c10091a350565b600160209081526000928352604080842090915290825290205460ff1681565b8280546104d390610813565b90600052602060002090601f0160209004810192826104f5576000855561053b565b82601f1061050e57805160ff191683800117855561053b565b8280016001018555821561053b579182015b8281111561053b578251825591602001919060010190610520565b5061054792915061054b565b5090565b5b80821115610547576000815560010161054c565b80356001600160a01b038116811461057757600080fd5b919050565b600082601f83011261058c578081fd5b813567ffffffffffffffff808211156105a7576105a761084e565b604051601f8301601f1916810160200182811182821017156105cb576105cb61084e565b6040528281528483016020018610156105e2578384fd5b82602086016020830137918201602001929092529392505050565b60006020828403121561060e578081fd5b61061782610560565b9392505050565b60008060408385031215610630578081fd5b61063983610560565b915061064760208401610560565b90509250929050565b60008060408385031215610662578182fd5b823567ffffffffffffffff80821115610679578384fd5b6106858683870161057c565b9350602085013591508082111561069a578283fd5b506106a78582860161057c565b9150509250929050565b60008151808452815b818110156106d6576020818501810151868301820152016106ba565b818111156106e75782602083870101525b50601f01601f19169290920160200192915050565b901515815260200190565b60006040825261071a60408301856106b1565b828103602084015261072c81856106b1565b95945050505050565b60006060825261074860608301866106b1565b828103602084015261075a81866106b1565b9150508215156040830152949350505050565b60208082526017908201527f44494420616c726561647920726567697374657265642e000000000000000000604082015260600190565b60208082526022908201527f4e6f20616363657373206772616e74656420746f207468697320616464726573604082015261399760f11b606082015260800190565b6020808252601390820152722224a2103737ba103932b3b4b9ba32b932b21760691b604082015260600190565b60028104600182168061082757607f821691505b6020821081141561084857634e487b7160e01b600052602260045260246000fd5b50919050565b634e487b7160e01b600052604160045260246000fdfea26469706673582212206b3a72db92812a787df7b05a1ebbaa2cc7f661a6993dae1029e4b89b080707a864736f6c63430008000033",
  "immutableReferences": {},
  "source": "// SPDX-License-Identifier: MIT\r\npragma solidity ^0.8.0;\r\n\r\ncontract DIDRegistry {\r\n    struct DID {\r\n        string name;\r\n        string documentHash; // Hash of identity data stored on IPFS\r\n        bool isRegistered;\r\n    }\r\n\r\n    mapping(address => DID) public dids; // Mapping from address to DID\r\n    mapping(address => mapping(address => bool)) public dataAccessPermissions; // Mapping to manage selective data sharing\r\n\r\n    event DIDCreated(address indexed user, string name, string documentHash);\r\n    event DataShared(address indexed owner, address indexed recipient);\r\n    event DataAccessRevoked(address indexed owner, address indexed recipient);\r\n\r\n    // Function to register a new DID\r\n    function registerDID(string memory _name, string memory _documentHash) public {\r\n        require(!dids[msg.sender].isRegistered, \"DID already registered.\");\r\n        dids[msg.sender] = DID(_name, _documentHash, true);\r\n        emit DIDCreated(msg.sender, _name, _documentHash);\r\n    }\r\n\r\n    // Function to share data with another user (grant permission)\r\n    function shareData(address _recipient) public {\r\n        require(dids[msg.sender].isRegistered, \"DID not registered.\");\r\n        dataAccessPermissions[msg.sender][_recipient] = true;\r\n        emit DataShared(msg.sender, _recipient);\r\n    }\r\n\r\n    // Function to revoke data sharing permission\r\n    function revokeDataAccess(address _recipient) public {\r\n        require(dids[msg.sender].isRegistered, \"DID not registered.\");\r\n        require(dataAccessPermissions[msg.sender][_recipient], \"No access granted to this address.\");\r\n        dataAccessPermissions[msg.sender][_recipient] = false;\r\n        emit DataAccessRevoked(msg.sender, _recipient);\r\n    }\r\n\r\n    // Function to check if a user has access to another user's data\r\n    function hasDataAccess(address _owner, address _recipient) public view returns (bool) {\r\n        return dataAccessPermissions[_owner][_recipient];\r\n    }\r\n}\r\n",
  "sourcePath": "C:\\Users\\KIIT\\DIDRegistry\\contracts\\DIDRegistry.sol",
  "compiler": {
    "name": "solc",
    "version": "0.8.0+commit.c7dfd78e.Emscripten.clang"
  },
  "schemaVersion": "3.4.16",
  "updatedAt": "2024-10-11T17:47:19.694Z",
  "devdoc": {
    "kind": "dev",
    "methods": {},
    "version": 1
  },
  "userdoc": {
    "kind": "user",
    "methods": {},
    "version": 1
  }
}